:08029100032F00000001320000
:10011E00D2C4D2B3D2B2C2C220B2107F0A7E0012B3
:10012E00035D20B20675320930B2FD20B3107F0A8E
:10013E007E0012035D20B30675320830B3FDD2C2C5
:10014E00D2B3D2B2C2C420B2107F0A7E0012035DB7
:10015E0020B20675320530B2FD20B3107F0A7E0044
:0D016E0012035D20B30675320430B3FD228C
:10017B00E524C4540FFD7F01120262E524540FFDE8
:10018B007F021202627D0A7F031202627D0A7F06E2
:10019B00120262E523C4540FFD7F04120262E523B1
:1001AB00540FFD7F05120262E522C4540FFD7F0739
:0D01BB00120262E522540FFD7F080202626D
:100231001203371202BA12030E1202F8E531B52485
:10024100FBE530B523F6E52FB522F1E4F533E533CF
:10025100C3940550E71202DC12011EE53260EF8003
:01026100DBC1
:1002DC007F041201C8E53430E0057580FE8008E526
:0C02EC003420E0037580FFE4FF0201C82D
:03000B0002009A56
:10009A00C0E0C0F0C083C082C0D075D000C000C02C
:0D00AA0001C002C003C004C005C006C007AD
:1000B700052AE52A70020529052CE52C7002052B77
:1000C700052EE52E7002052DE52AB4E80DE529B4C5
:1000D7000308752900752A000533E52C64C8452BEC
:1000E7007006F52BF52C0534E52E640A452D700CAA
:0C00F7001202F812017B752D00752E001E
:10010300D007D006D005D004D003D002D001D00050
:0B011300D0D0D082D083D0F0D0E032FA
:10029900080801020408102040800B10C0F9A4B01E
:0702A900999282F88090BFDA
:1001C800EF24FC601414601814601C1460202407C9
:1001D8007022C2A5C2A6C2A722D2A7C2A5C2A622C1
:1001E800D2A5D2A7C2A622D2A6D2A7C2A522D2A59C
:0501F800D2A6D2A722EF
:0B035D00EF1FAC0670011E4C70F62272
:100337007F041201C87580FF0F1201C8E4F580FF22
:030347000201C8E8
:10026200AE077F061201C874072EF8E6F5800F125A
:1002720001C874102DF8E6F5807F647E0012035DDC
:0F0282007580FF7F0A7E0012035DE4FF0201C852
:0902B000071B5059232203012110
:10034A00E4FEC297EF1392A3EFC313FFD2970EBE38
:02035A0008F0A9
:01035C00227E
:10032300C29300C29700D2930012034AAF0512038F
:040333004AC2932205
:1001FD00E4FDC29300C29700D2930012034AE4FFBC
:10020D00C297EDC313FD30A303430580D2970FBFF3
:10021D0008EEC29300C29700D29700C2A300D2A3EA
:03022D0000AF051A
:0102300022AB
:1002BA007C80E4FBFD7F8E120323AF04741B2BF8B2
:1002CA00E6FD1203230C0C0BBB07EF7D807F8E0229
:0202DA000323FC
:1002F800E4FC7B81AF031201FD74222CF8A6070BE6
:050308000B0CBC07EF27
:01030D0022CD
:10030E00538E7F5389F0758A18758CFCC28DD28CF2
:05031E00D2A9D2AF22BC
:0300000002000EED
:0C000E00787FE4F6D8FD758134020055BF
:10001A00020231E493A3F8E493A34003F68001F2C9
:10002A0008DFF48029E493A3F85407240CC8C333E7
:10003A00C4540F4420C8834004F456800146F6DFB6
:10004A00E4800B0102040810204080900291E47EB3
:10005A00019360BCA3FF543F30E509541FFEE493AB
:10006A00A360010ECF54C025E060A840B8E493A372
:10007A00FAE493A3F8E493A3C8C582C8CAC583CA9D
:10008A00F0A3C8C582C8CAC583CADFE9DEE780BE55
:0102B9000044
:00000001FF
